:100000000C942A000C9434000C9434000C943400AA
:100010000C9434000C9434000C9434000C94340090
:100020000C9434000C9434000C9434000C94340080
:100030000C9434000C9434000C9434000C94340070
:100040000C9434000C9434000C9434000C94340060
:100050000C94340011241FBECFE5D8E0DEBFCDBF25
:100060000E9493010C94AC020C940000823419F1AC
:1000700018F4813439F008958334B1F1843409F4EB
:100080004CC00895413059F42AB381E090E002C099
:10009000880F991F6A95E2F7822B8ABB08952AB3CD
:1000A00081E090E002C0880F991F6A95E2F7809581
:1000B00082238ABB0895413059F427B381E090E050
:1000C00002C0880F991F6A95E2F7822B87BB0895BB
:1000D00027B381E090E002C0880F991F6A95E2F78C
:1000E0008095822387BB0895413059F424B381E081
:1000F00090E002C0880F991F6A95E2F7822B84BBBB
:10010000089524B381E090E002C0880F991F6A959A
:10011000E2F78095822384BB0895413059F421B3DE
:1001200081E090E002C0880F991F6A95E2F7822B68
:1001300081BB089521B381E090E002C0880F991F30
:100140006A95E2F78095822381BB0895823419F184
:1001500018F4813439F008958334B1F1843409F40A
:100160004CC00895413059F42BB381E090E002C0B7
:10017000880F991F6A95E2F7822B8BBB08952BB3EA
:1001800081E090E002C0880F991F6A95E2F78095A0
:1001900082238BBB0895413059F428B381E090E06D
:1001A00002C0880F991F6A95E2F7822B88BB0895D9
:1001B00028B381E090E002C0880F991F6A95E2F7AA
:1001C0008095822388BB0895413059F425B381E09E
:1001D00090E002C0880F991F6A95E2F7822B85BBD9
:1001E000089525B381E090E002C0880F991F6A95B9
:1001F000E2F78095822385BB0895413059F422B3FC
:1002000081E090E002C0880F991F6A95E2F7822B87
:1002100082BB089522B381E090E002C0880F991F4D
:100220006A95E2F78095822382BB08956295607F8C
:10023000823479F018F4813431F00895833479F000
:10024000843499F008958BB38F708BBB8BB3862B5E
:100250008BBB88B38F7088BB88B3862B88BB85B374
:100260008F7085BB85B3862B85BB82B38F7082BBB5
:1002700082B3682B62BB08959B01AC0160E072E120
:100280008AE790E00E948A02DA01C9014097A10939
:10029000B109B695A7959795879580B911B8089536
:1002A00084EA86BF06B607FEFDCF81B1887F88301D
:1002B000E1F7089584EA86BF06B607FEFDCF81B157
:1002C000887F8031E1F7089583B984E886BF06B658
:1002D00007FEFDCF81B1887F8831E1F7089583B9AA
:1002E00084E886BF06B607FEFDCF81B1887F8034E3
:1002F000E1F7089583B984E886BF06B607FEFDCF0F
:1003000081B1887F8832E1F7089584E986BF089536
:1003100084E886BF06B607FEFDCF81B1887F8835A9
:10032000E1F783B108950E94090260E573EC80E073
:1003300090E00E943C012FEF84E39CE0215080403C
:100340009040E1F700C000000E94500180EA0E9446
:10035000640180E00E947A0182E30E947A010E9497
:1003600085012FEF81EE94E0215080409040E1F72D
:1003700000C000000E94500180EA0E94640180E0F9
:100380000E947A010E945A0181EA0E946F010E9434
:100390008801C82F0E9485018C2F0E946802FFCF20
:1003A00041E060E082E40E94A6008FE99FE00197AF
:1003B000F1F700C0000040E060E082E40E94A60087
:1003C0008FE99FE00197F1F700C000000895CF93F7
:1003D000C82F682F62956F7081E40E94160140E07B
:1003E00061E082E40E94A6000E94D0016C2F81E4AB
:1003F0000E94160140E061E082E40E94A6000E9493
:10040000D0018FEC97E00197F1F700C00000CF9189
:1004100008952FEF81EE94E0215080409040E1F765
:1004200000C0000041E064E081E40E94360041E049
:1004300065E081E40E94360041E066E081E40E94CC
:10044000360041E067E081E40E94360041E060E070
:1004500082E40E94360041E062E082E40E943600BD
:1004600041E061E082E40E94360040E062E082E424
:100470000E94A60082E00E94E7018FE19EE40197BE
:10048000F1F700C0000088E20E94E7018FEC97E0DE
:100490000197F1F700C000008EE00E94E7018FECA9
:1004A00097E00197F1F700C0000081E00E94E701AA
:1004B0008FE19EE40197F1F700C0000086E00E9402
:1004C000E7018FEC97E00197F1F700C00000089575
:1004D000CF93C82F682F62956F7081E40E94160138
:1004E00041E061E082E40E94A6000E94D0016C2FEE
:1004F00081E40E94160141E061E082E40E94A600CE
:100500000E94D0018FEC97E00197F1F700C0000046
:10051000CF910895A1E21A2EAA1BBB1BFD010DC0AD
:10052000AA1FBB1FEE1FFF1FA217B307E407F507A3
:1005300020F0A21BB30BE40BF50B661F771F881F7F
:10054000991F1A9469F760957095809590959B0115
:0C055000AC01BD01CF010895F894FFCF6D
:00000001FF
